:040000006F00701C01
:100004000000000000000000AC050000AE05000088
:1000140000000000C409000000000000000000000F
:10002400C4090000C4090000000000000000000032
:10003400C409000000000000C40900000000000022
:10004400C4090000C4090000C4090000C409000078
:10005400C4090000C4090000C4090000C409000068
:10006400C4090000C4090000C4090000C409000058
:10007400C4090000C4090000C4090000C409000048
:10008400C4090000C4090000C4090000C409000038
:10009400C4090000C4090000C4090000C409000028
:1000A400C4090000C4090000C4090000C409000018
:1000B400C4090000C4090000C4090000C409000008
:1000C400C4090000C4090000C4090000C4090000F8
:1000D400C4090000C4090000C4090000C4090000E8
:1000E400C4090000C4090000C4090000C4090000D8
:0C00F400C4090000C4090000C409000099
:10010000397101436EC619A0397141536AC866CA74
:1001100062CC5ECE19A0397101535AD056D252D456
:100120004ED64AD826DA22DC06DE330161408282CE
:1001300041114AC026C222C406C68282B24D410184
:10014000024D924C224CB24B4101024B924A224A40
:10015000B2494101024992442244B24041018280A5
:100160003D432A876373C3029377F700BDEFADE584
:10017000937606FF3D8ABA960CC34CC30CC74CC796
:100180004107E36BD7FE11E28280B306C3408A06C3
:100190009702000096966780A6002307B700A30683
:1001A000B7002306B700A305B7002305B700A304D3
:1001B000B7002304B700A303B7002303B700A302CB
:1001C000B7002302B700A301B7002301B700A300C3
:1001D000B7002300B700828093F5F50F9396850052
:1001E000D58D93960501D58D61B79396270097021B
:1001F000000096968682E78086FA9680C1171D8F4A
:100200003E96E374C3F8A5B7EFF29FF2931785010A
:10021000E187397163D9070083A7C18199C3054577
:100220008297216105BFB70700202388A70C2E8481
:1002300085453705000223A20182EF00106785453E
:100240001145056902D002D202D4EF003064930751
:100250000980B71401402310F1020C1093078004A9
:10026000138504803ED4EF001041E1473ED40C10CA
:100270008D47138504803ED223102103EF00B03F49
:100280001306000281450810E13D37650040130563
:100290000540EF00A07B0810EF00701EB7470F006D
:1002A00002D402D602D802DA02DC02DE2301010205
:1002B000938707246315F404930720102312F10297
:1002C000A30101028947376500400C101305054062
:1002D0002310F102EF00A07A8547230CF10068009B
:1002E00085473ECE02C602C802CAEF00D007854548
:1002F00013050004EF00B057EF00B0361DB7B7A7E5
:10030000070093870712A30101026318F400930703
:1003100020102312F10291477DB79307201023127A
:10032000F102A1474DB7EFF21FDF3769004071714D
:100330001309094081454A85EF00503149C97000D1
:1003400081454A85EF00D02732448344610178001B
:10035000814793F6F70F050763E5960626864C005E
:100360001305710122C6230B9100EF00B07C935757
:10037000A4019D8B2302F102935784002314F10200
:100380001374F4079307F00726869305710168102C
:10039000A303F10223038102A30201022315010238
:1003A0002316910AEF001079138781811C439386ED
:1003B00017003ED083A7018214C3ADDF08108297D7
:1003C00095BF30275400BE9690A2850759B74D615E
:1003D000ADBBEFF2FFD540211E250356C5086A04C8
:1003E000A2075D8C7C2179719374F60F5D8C930567
:1003F000C5001305310122C423099100EF00907359
:10040000AD4722CE02D023120102230391021387AB
:1004100057FF1377F70F636A9702376400406C0841
:1004200013050440EF00F007AA8491470145638C4F
:10043000F400130404400549A6852285EF0030121C
:10044000E31C25FF0545456131B33400BE96942277
:1004500078083E9714A385075DBFEFF27FCD7571D5
:100460002E84AA8481451306C0084800D539138715
:1004700081811C430A85230891009386170014C3C9
:1004800009475882370700200347070D3EC0A308DD
:10049000810058831307F007D883138741821443E0
:1004A0001386160010C31D472316E10837470F00B7
:1004B00013070724B3D7E70274857C86193F496187
:1004C00051B9EFF2FFC675712A841306C008814541
:1004D000480079319387818198431028930617004B
:1004E00094C385475C82B707002083C7070D3AC0D5
:1004F00050865C839307F007DC838D477C84938769
:10050000418298439306170094C393071600860709
:100510002316F1088A8778853E8501479376F70F81
:10052000890763E5C600753549612DB1931617003B
:10053000A29696220507D4A7A182D4B7C5B7EFF239
:100540003FBF75712A84130640038145E8080939C5
:1005500093878181984313060005A28593061700AF
:1005600094C3930720207C82B707002083C7070D20
:100570003AC068005C831C20DC8385477C849387B9
:10058000418298439306170094C39307000578852A
:100590002316F108EF00105A0A85253D49615DBE1A
:1005A00023A0A182828023AEA180828001A0B70710
:1005B000EFBE37E700E0938707083CC701A0EFF2E2
:1005C0003FB7AA85372500001305055B37140140A6
:1005D000EF007061954413040480C1452285EF004B
:1005E000501A13054006EF007046C1452285EF0002
:1005F000901A13054006FD14EF005045F9FC99BE12
:10060000EFF21FB30E258547638CF500894763859C
:10061000F5023725000013054561EF00D05C21A8E5
:10062000372500001305855CEF00306D370500208D
:1006300013050500293739BE372500001305055F6E
:10064000EF00B06BB707EFBE37E700E0938707080E
:100650003CC7D5B7EFF2DFAD41118545114502C268
:1006600002C402C6EF009022C147371401407C82C9
:10067000C1473EC64C008D47130504803EC4EF00C1
:10068000807FC14513050480EF00F0104101D9B40B
:10069000EFF21FAA41118545054502C202C4231687
:1006A0000100EF009020B707002083A7470D3747D0
:1006B0000F0013070724B3D7E7024C0037050040AB
:1006C00023130100FD177C82C167FD173EC4EF00B4
:1006D0009021854537050040EF00902741019DBCE2
:1006E000EFF21FA537050040EF001028A5B4EFF288
:1006F000BFA101110545EF00500B252CEF00703212
:10070000716513050520EF00D037B707002083A5DA
:10071000470D372500001305C563EF00D04CEF00EF
:10072000E074AA85372500001305C564EF00B04BBF
:1007300085370D3737250000B70400201305C56540
:1007400013840400EF00705B0820374A0F00930504
:100750000A245D3C37050000130505609135370517
:1007600000001305E55B81350C20372500001305DB
:100770000568EF005047372500009305401F13051B
:100780008569EF005046A93F1309803E3355250384
:100790009389C183938404001384C183130B803E27
:1007A000130A0A24896B054C23A0A900153F335571
:1007B000250323A2A9002D373355250323A4A9001F
:1007C000B719014093890980213F33596503AA8AEB
:1007D000993E1C401307703EB307F940637BF70056
:1007E000AC2088309D39B3DA4A032320240123A2A8
:1007F00054015C404D47B307F940637CF70049461C
:100800009385CB596800EF00F03268005D392322F0
:1008100024011C441307301FB307F940637EF7001F
:10082000C1454E85EF004074C145631B85014E856F
:10083000EF006076232424010545EF00302169B7DD
:100840004E85EF000074FDB7B71702409843B70616
:10085000FFF041111367170098C3D8433706020011
:10086000758FD8C39843B706F7FEFD16758F98C3EA
:100870009843B706FCFFFD16758F98C3D843B7069B
:1008800001FFFD16758FD8C337079F0098C702C4B4
:1008900002C69843C166558F98C3B71602400567D4
:1008A0009C42F18F3EC6A24785073EC4B24781E70E
:1008B000A247E397E7FEB71702409C431397E70070
:1008C0006357070685473EC632478547631FF704CF
:1008D000B7170240D843B706C1FFFD16D8C3D843A7
:1008E000D8C3D84313670740D8C3D843758FD8C33C
:1008F000D843B7062900558FD8C39843B7060001DF
:10090000558F98C3984393166700E3DD06FED843DE
:10091000B7160240719BD8C3D84313672700D8C3CA
:100920002147DC42B18BE39EE7FE4101828002C693
:1009300061BFB7160240DC42370700201146B18B79
:100940001307470D6385C70021466388C702B717A1
:100950007A00938707201CC3B7170240DC439183BA
:1009600093F6F700B707002093870705B6979423FF
:100970001C43B3D7D7001CC38280DC42D4424166FB
:10098000C983BD8BF18E890745466393C700C9476C
:1009900081EEB746024083A60680C18A89CEB7168B
:1009A0007A009386062021A8B7160240D4421396F7
:1009B000E600E35606FEB7163D0093860690B38721
:1009C000D70251BF01A0970100209381A1F01741E8
:1009D000002013012163172500001305A5D997F501
:1009E000FF1F938525621386818163FAC5008322E8
:1009F000050023A0550011059105E3EAC5FE138506
:100A000081819385C1846377B5002320050011059A
:100A1000E36DB5FEFD42739002BC8D42739042803F
:100A2000930280087390023097F2FFFF9382C25DB9
:100A300093E2320073905230EFF01FE19702000012
:100A4000938222CB7390123473002030EFF24FEE7A
:100A5000B7670040938707408545631BF50037055E
:100A600000029D25814537050002B92D6FF08FEEFC
:100A700037050004912D814537050004FDB7184165
:100A8000AA87759B18C118411367170018C14167E1
:100A9000D443858A99E27D1765FFD8430145058BCC
:100AA00049CF94450547639BE608984313670708B9
:100AB000D44598C305476397E6089843136707042E
:100AC000944998C305476393E60898431367070260
:100AD000D44998C30547639FE60698431367070107
:100AE000944D98C30547639AE606984313678700B9
:100AF000D44D98C305476395E606984313674700AE
:100B000098C3B821B4317A07E206558FD421C206C2
:100B1000558FD431D206558F9621FD16558FD8CFDB
:100B20009843799B98C34167D443858A99C27D17BE
:100B300065FFC8431345F5FF058982809843137705
:100B4000F7F7BDB798431377F7FB9DBF984313772B
:100B5000F7FDBDBF98433D9B61B798435D9B49BF7F
:100B600098436D9B71BF376700401307074083268A
:100B700007203C25054893E616002320D72083252F
:100B8000C7213316F8009346F6FFF58D232EB720C4
:100B90004C25C5E58325C720035825008E07F58D14
:100BA0002326B7206E21BA975A21C205B3E5050165
:100BB00023A0B7240E2142074D8F23A2E724B72795
:100BC0000240985BB707000FF98F99EF3767004035
:100BD00093070730130707408E239107C205C18191
:100BE000239EB7EEE39AE7FE3835B7670040938758
:100BF00007402DEB03A74720758F23A2E7201A2576
:100C0000B76700409387074035E303A74721F98E74
:100C100023AAD720184985476319F700B767004012
:100C200003A7C761598E23AEC760B767004003A70B
:100C30000760799B23A0E7608280E39205F9832512
:100C4000C720035825008E07D18D2326B7200E21FB
:100C5000BA975A21C205B3E5050123A0B72442077C
:100C60006E2199BF03A74720518F41BF8546E313EB
:100C7000D7FA03A74721518F23AAE72061BF8547F1
:100C80001CC19307302023240500232605002328B8
:100C90000500232A0500232C0500232E05005EA154
:100CA00082801C4513975700634E07081C45139715
:100CB0004700634B07081C45914613973700635163
:100CC0000708894693974600AA9703A70718058B3C
:100CD00023A0E7189025883535EA984103A6071820
:100CE0005607498F518F23A0E718B8253D8BB8A52B
:100CF00003A64718419A23A2C71803A64718518F85
:100D000023A2E718D025B8352206598ED8354207D8
:100D1000598EF8256207518F23A4E7189029F835DA
:100D20002206598E98394207598EB8296207518F89
:100D300023A6E71803A707181367170023A0E718CF
:100D4000368582808146BDBF8546ADBFD84103A8A8
:100D500007180E07498F518F3367070169B7854719
:100D60006389F50291C58947638BF5020945828045
:100D70001C45370500040D0537070004E98F0D07F2
:100D80000545638EE7026360F70213B51700060599
:100D900082801C453705000813050530F1BF1C454E
:100DA00037050310D1BF3707000813070730054583
:100DB0006387E70037050310898F13B5170082801A
:100DC00093974500AA9703A7071B118B18A62DE739
:100DD00003A7071B558318C203A7071B098B18B667
:100DE00003A7471B3D8B38A603A7471B218338BAAF
:100DF00003A7871B38B603A7871B218358A603A721
:100E0000871B418358B603A7871B618378A603A776
:100E1000C71B78B603A7C71B218318AA03A7C71B44
:100E2000418318BA83A7C71BE1833CAA99E95C45B3
:100E300093E707025CC5828003A7071B0D8358C296
:100E400061BF1C4993E707021CC9828089E55C45A4
:100E50008D8B3E85828005478147E39CE5FE1C49DA
:100E6000C5BFB7370240054798C78280B7F7FF1F55
:100E700003A5477082809C4513F7070113F8F7001C
:100E800001C7D8413368E80037270240145B3707B1
:100E9000000F758F4DEB85462384D18237170140B3
:100EA0006315E5009A2135839AA18E2113F7F50F7A
:100EB00039C318418146854E3D4F930F80029302FE
:100EC0008004214E3396DE00B3F8C500631116038B
:100ED0009398260033131F011343F3FF3377E30086
:100EE000B318180133E7E8006397F70750C9850680
:100EF000E39AC6FD18C11307F00F6375B704544198
:100F00002146854E3D4F930F800293028004414E4F
:100F1000B398CE0033F715016392E8021317260049
:100F200001173313EF001343F3FFB376D3003317E6
:100F3000E800D98E6395F703232A15010506E31906
:100F4000C6FD54C1828037170140E310E5F603C7A0
:100F5000818221DF81BFE39C57F810C949BFE39F1D
:100F600057FC23281501D9BFB71701406316F500B8
:100F700083C7818291C3B58148456D8D3335A0000B
:100F80008280B71701406316F50083C7818291C341
:100F9000B5810CC98280B71701406316F50083C77D
:100FA000818291C3B5814CC9828023A6A1828280AF
:100FB000371702405C439146B18B6385D700A14649
:100FC0006382D706B7177A00938707201CC13716AC
:100FD00002405C4237070020130707069183BD8B50
:100FE000BA9794231C41B3D7D7005CC15442A18265
:100FF0009D8ABA969422B3D6D70014C55442AD82C6
:101000009D8A36971823B3D7E7005CC558423983C9
:10101000937637001387818036971823B3D7E7027A
:101020001CC982805C435843C166C983BD8B758FE0
:101030008907C5466393D700C94701EF3747024088
:1010400003270780418B09CF37177A001307072042
:1010500021A83717024058439316E700E3D606FE4F
:1010600037173D0013070790B387E70285B799C587
:10107000371702405C4B5D8D48CB8280B71702402A
:10108000D84B1345F5FF798DC8CB828099C53717AA
:1010900002401C4F5D8D08CF8280B7170240984FE9
:1010A0001345F5FF798D88CF828099C537170240A7
:1010B0005C4F5D8D48CF8280B7170240D84F1345F3
:1010C000F5FF798DC8CF828099C5371702401C4B38
:1010D0005D8D08CB8280B7170240984B1345F5FF12
:1010E000798D88CB82801E2137370140130707C0D6
:1010F000C207C1836304E502370700406300E502CD
:1011000013070740630CE50037170040930607807C
:101110006306D500130707C06316E500BA2193F7ED
:10112000F7F8D98FFA2193F7F7CFC207C183D98F88
:101130001EA1DE215EB59E211EB5B7370140938703
:1011400007C06314F5009C251EB985475EA98280FF
:101150001E2189C593E717001EA18280C207C183A3
:10116000F99BC207C183CDBF4A318280EFE25FFCA9
:101170001629F577FD17F58FF621DA257971D58FC8
:101180001EA95625FD779387379FF58FD6212A8490
:101190002EC6D58F9625D58FB625D58F5EA55E290F
:1011A000C207C18393F7F7CFD98F5EA968080935C5
:1011B000B747014093870780B245631EF402A257E8
:1011C0006547B387E7029841930640060A07B3D7FD
:1011D000E70233D7D702B3F7D702120792079387F4
:1011E0002703B3D7D702BD8BD98FC207C1831EA4F3
:1011F00045616FE03FF69257E1B791C55E250967FB
:10120000D98F5EA582805A25F977FD17F98FD5BF52
:1012100093F5F51F4EA182800A216D8D3335A00014
:101220008280B707002083A7470D37177A0013077E
:101230000720B3D7E70293F7F70F2389F18213074B
:10124000803EB387E7022398F1828280B7F700E0FF
:10125000D8438146799BD8C303D701833306A702BD
:1012600090CBD4CB98431367070198C39843136777
:10127000170298C3D843058B75DF9843799B98C3B1
:101280008280EFE2FFEA2A8411650111854511058C
:10129000F53B930700207C82371501408D473EC403
:1012A0004C00E147130505803EC6F13622C837449D
:1012B0000140B70708000C08130504803ECC02CAA1
:1012C000231E010065358545130504803D37056102
:1012D0006FE05FE8EFE23FE4B7440140AE89328956
:1012E000014493840480634524014A856FE0FFE54F
:1012F0009305000426850D3765DDB3878900838556
:10130000070026850504C205C1811937E9BF138787
:10131000C1801C439386C1843E95636BD500B7564C
:1013200000209386068063E5A60008C33E85828080
:10133000FD57EDBFB3C7A5008D8B3307C50081E70F
:101340008D4763EDC700AA87637EE5089421850772
:101350008505A38FD7FEE3EBE7FE82809376350009
:10136000AA8789CA942185078505A38FD7FE93F69E
:101370003700C5BF9376C7FF138606FE63F0C70626
:1013800083A3050083A2450083AF850003AFC5009A
:1013900083AE050103AE450103A3850183A8C50102
:1013A0009385450223A0770003A8C5FF23A2570019
:1013B00023A4F70123A6E70123A8D70123AAC70185
:1013C00023AC670023AE17019387470223AE07FFC4
:1013D00075B790419107910523AEC7FEE3EBD7FEA9
:1013E000E3E6E7F6828039713EDA2ED232D436D681
:1013F0003AD842DC46DE9387018122CC804326CA5C
:1014000006CEAA8409C41C4C99E32285ED290C441C
:1014100054102686228536C6EF007012F2406244D0
:10142000D24421618280011126CA4AC806CE22CC4C
:101430004EC652C4AA842E8901C51C4D91E3E121F8
:101440009C4C804499E326857D299717000093875B
:10145000A72A631BF402C0405E24A18BB1C71C48BD
:10146000A1C7FD59294A1C4483450900FD17B1E96C
:101470001CC463DD07062286A94526856120FD5729
:101480006308F502294535A0971700009387C72800
:101490006314F4008044C9B7971700009387C723EB
:1014A000E31CF4FAC0444DBFA2852685112A55D904
:1014B0007D55F2406244D2444249B249224A056114
:1014C00082801CC4050963D70700184C63CAE70073
:1014D000638845011C401387170018C08CA361B7AF
:1014E000228626850520E31035F9D9B71C401387DD
:1014F000170018C0294798A371B793870181AA855F
:10150000884315B7011122CC26CA4AC806CE4EC65A
:10151000AA842E89328401C51C4D91E3ED269717CC
:1015200000009387671D6317F406C0401C4C1CC461
:101530005E24A18BC1C31C48B5CF1C4808409379D9
:10154000F90F1379F90F1D8D5C486346F500A285EC
:101550002685692C25E51C440505FD171CC41C4087
:101560001387170018C0238037015C486388A700E1
:101570005E24858B81CBA9476316F900A285268559
:10158000B5240DEDF24062444A85D2444249B24945
:101590000561828097170000938707186314F40091
:1015A000804469B79717000093870713E310F4F896
:1015B000C044ADBFA2852685212041D17D59D9B730
:1015C00041119387018126C2844322C44AC006C6C2
:1015D0002A892E8489C49C4C99E326852D26971749
:1015E000000093876711631BF402C0400317C40017
:1015F00093170701C18393F68700ADEA93F60701BD
:1016000095EEA5472320F900136707045AA47D55DA
:10161000B24022449244024941018280971700005F
:101620009387870F6314F4008044C9B797170000AD
:101630009387870AE31CF4FAC0444DBF918B9DC386
:101640004C5889C9930744046384F5004A853123C3
:10165000232A04025E242322040093F7B7FD5EA42C
:101660001C481CC05E2493E787005EA41C4899EBCD
:101670005E241307002093F707286385E700A285FF
:101680004A85A1215E2413F717001DC35C4823245B
:101690000400B307F0401CCC1C480145B5FB831780
:1016A000C40013F707082DD793E707045EA485B796
:1016B000898B014791E3584818C4F9BFDE25011111
:1016C00022CC26CA06CE4AC84EC613F78700AA8483
:1016D0002E8479EBD841634DE000B841634AE000C5
:1016E0000145F2406244D2444249B24905618280D8
:1016F00058547DD703A904009396370123A0040012
:1017000063DB060670485E24918B99C75C401D8E92
:101710005C5899C33C401D8E5C540C508146268514
:101720008297FD575A24631DF5009440F54763E8FE
:10173000D706B70740208507B3D7D700858BA5C349
:101740001C48232204001CC09317370163D80700EC
:10175000FD576314F5009C4091E368C84C5823A0E2
:101760002401BDDD930744046384F5002685F52636
:10177000232A0402B5B70C500146854626850297F8
:10178000FD572A86E311F5F89C40B5DF7547638560
:10179000E70059476393E70423A0240191B7136737
:1017A00007045AA47D5535BF83A90501E38A09F2D0
:1017B00003A905008D8B23A0350133093941014769
:1017C00091E3D84918C4E35D20F11C540C50CA863B
:1017D0004E86268582976347A0005E2493E7070420
:1017E0005EA4C9B7AA993309A940F1BF9C49B9CFF2
:1017F000011122CC06CE2A8411C51C4D81E72EC6CC
:101800001922B24597170000938707EF639BF500F5
:101810004C408397C50095C722856244F24005611C
:1018200071BD97170000938727EF6394F5000C4470
:10183000CDB797170000938727EAE39CF5FC4C444B
:10184000C9BFF24062440145056182800145828042
:10185000411122C406C62A844EA572A52320050084
:101860002322050023240500232205062328050042
:10187000232A0500232C0500214681451305C505B3
:10188000EFE01F8E97170000938747B15CD0971742
:101890000000938767B31CD497170000938747B75E
:1018A0005CD4971700009387A7B900D01CD8B2402A
:1018B00022444101828097050000938565F3A9A227
:1018C000411126C2130680069384F5FFB384C40237
:1018D0004AC02E8922C406C6938544071D262A8441
:1018E00001CD2320050023222501310508C41386DC
:1018F00084068145EFE0DF862285B240224492448F
:101900000249410182801C4DADE3411106C622C44B
:1019100097070000938767FA1CD5938741819C4302
:101920002324050423260504232805046314F50055
:1019300085471CCD2A841D2848C02285052808C457
:1019400022852D2048C4484001469145113708445E
:101950000546A545F53D48440946C945D53D854759
:101960001CCCB24022444101828082804111938785
:10197000418126C284434AC006C69C4C22C42A899F
:1019800099E326854937938484048044DC40FD171D
:1019900063D607009C40B9CF8440C5BF0317C4007D
:1019A00039E7C17785072322040623200400232278
:1019B0000400232404005CC423280400232A040018
:1019C000232C0400214681451305C405EFE04FF99F
:1019D000232A0402232C04022324040423260404BF
:1019E0002285B2402244924402494101828013047C
:1019F000840671BF91454A85E13588C051FDB147E4
:101A00002320F9000144E9BF797122D44AD052CC95
:101A100056CA5AC85EC606D626D24ECE2A8AAE8A84
:101A2000130485040149054BFD5B09ECB2502254B7
:101A30004A8592540259F249624AD24A424BB24B09
:101A400045618280044483294400FD1963D4090060
:101A50000040E1BFDE24637BFB008397E4006387E3
:101A60007701A6855285829A3369A90093848406FA
:101A7000E9BF1971A6DAAE848395E500A2DC86DEA3
:101A8000328463DB0500DE2423A0060093F70708F9
:101A900085E7930700401DA0300836C6EF00D01F31
:101AA000B246E34205FE7247BD67F98F7977BA9770
:101AB00093B717009CC2F1BF930700041CC0F650F7
:101AC0006654D654014509618280DE25011122CC7D
:101AD00006CE26CA4AC8898B2E8489CF9307740400
:101AE0001CC01CC885475CC8F2406244D2444249CD
:101AF0000561828074003000AA84A53FA2452A892E
:101B00002685012219E98317C40013F7072069FF0E
:101B1000F19B93E727005EA4D1B797070000938756
:101B2000C7D99CD45E2408C008C893E707085EA400
:101B3000A2475CC8B24781CF8315E4002685EF0039
:101B4000501811C55E24F19B93E717005EA45E2434
:101B50003369F9002316240141BFDDC183A7C5FF06
:101B6000411122C406C626C21384C5FF63D30700F1
:101B70003E94AA84EF00B01B938741839C4381EF7E
:101B80002322040023AA81822244B2402685924463
:101B900041016F00F019637EF40014403307D40054
:101BA0006396E7009843DC43369718C05CC0D9BF02
:101BB000BA87D84319C3E37DE4FE94433386D70044
:101BC000631F86001040B29694C33386D700E31D8E
:101BD000C7FA10435843B29694C3D8C375B7637518
:101BE000C400B1479CC04DB71040B306C400631693
:101BF000D70014435843B29614C058C0C0C369B745
:101C00008280011126CA93843500F19806CE22CC39
:101C10004AC84EC6A104B14763F3F404B14463E279
:101C2000B4042A89EF00B0109387418398433A8423
:101C300039E0938781839C4391E781454A85052F4D
:101C400023ACA182A6854A851D27FD596319350756
:101C5000B1472320F9004A85EF00900D29A0E3D079
:101C600004FCB1471CC10145F2406244D2444249E0
:101C7000B249056182801C40858F63CF0702AD4663
:101C800063F6F6001CC03E9404C031A05C406313B0
:101C9000870223AAF1824A85EF0090091305B40058
:101CA0009307440061993307F5405DDF3A94898FCB
:101CB0001CC05DBF5CC3C5B72287404095BF1304FD
:101CC00035007198E30285FCB305A4404A8545259B
:101CD000E31C35FBB5BF1C46FD171CC663DA0700C5
:101CE000184E63C5E700A9476394F5006FF09F8124
:101CF0001C422E851387170018C28CA38280011105
:101D000022CC26CA4AC84EC652C406CE2A89AE89FB
:101D10003284B304D6007D5A63149400014501A8AF
:101D20000C204E864A85453F0504E31745FFF240E7
:101D30006244D2444249B249224A056182803571E7
:101D400022CD26CB4AC94EC706CF52C556C35AC16B
:101D5000DEDEE2DCE6DAAA89AE843289368401C5A9
:101D60001C4D91E34D36971700009387E7986397D2
:101D7000F40C83A44900DE24A18BFDC39C48EDC371
:101D800093070002A304F1029307000302D2230584
:101D9000F10222C6930B5002971A0000938ACA9947
:101DA000054C294B4A841C2099C3639E770DB30CC4
:101DB0002441638D0C00E6864A86A6854E858137D0
:101DC000FD57630FF51C9256E69636D21C206389A8
:101DD000071CFD571309140002C802CE3ECA02CCEC
:101DE000A309010482D48345090015465685252799
:101DF00013041900C24751E913F7070109C7130774
:101E00000002A309E10413F7870009C71307B00212
:101E1000A309E104834609001307A002638FE606C5
:101E2000F2474A848146254618209305140013077B
:101E300007FD6377E60AB5CA3ECE85A8971700006E
:101E40009387878D6395F40083A489002DB7971736
:101E5000000093876788E390F4F283A4C90021BF50
:101E6000A6854E85EFF0CFF501DD7D55FA406A4439
:101E7000DA444A49BA492A4A9A4A0A4BF65B665CEE
:101E8000D65C0D618280050439BF33055541331599
:101E9000AC00C98F3EC82289B9B7324793064700C4
:101EA000184336C6634707023ACE18209307E0026C
:101EB000631DF70418309307A002631BF702B247B3
:101EC0000904138747009C433AC663C107023ECA10
:101ED0002DA83307E04093E727003ACE3EC8F1B77C
:101EE000B387670385462E84BA973DBFFD57C5B7B4
:101EF000050402CA8146814725461820930514002F
:101F0000130707FD6374E606F9F20C200D4617155A
:101F100000001305E582012511CD97170000938776
:101F200027821D8D93070004B397A700424505043F
:101F30005D8D2AC80C2019461715000013058580F1
:101F4000130914002304B102F92335C197E7FFFFF9
:101F50009387470B95E74247B2471377071009CF9E
:101F600091073EC69257D2973ED22DBDB3876703E5
:101F700085462E84BA9751B79D07E19BA107D5B737
:101F80007800970600009386C6D726860C084E85F3
:101F900097000000E7000000FD572A8AE314F5FCD3
:101FA000DE2493F70704E39207EC1255C1B57800DD
:101FB000970600009386E6D426860C084E85012AF3
:101FC000E1BF797156CA9C49BA8A984522D426D273
:101FD0004ECE52CC06D64AD05AC85EC6AA892E84A6
:101FE000B284368A63D3E700BA879CC003473404BF
:101FF00019C385079CC01C4093F7070281C79C400A
:1020000089079CC00329040013796900631A090039
:10201000130B9401FD5B5C449840998F634CF90469
:102020001C408346340493F70702B336D000A5EB77
:1020300013063404D2854E85829AFD576303F50456
:102040001C4011469840998B544481446397C700C3
:10205000B384E64063D3040081441C4418486354AD
:10206000F700998FBE94014969047D5B639824054C
:10207000014509A885465A86D2854E85829A631EF7
:1020800075017D55B250225492540259F249624A68
:10209000D24A424BB24B456182800509ADBF33073E
:1020A000D40013060003A301C70403475404938715
:1020B0001600A2978906A381E7049DBF8546228664
:1020C000D2854E85829AE30E65FB050945B7797185
:1020D00022D426D24AD04ECE06D652CC56CA5AC8A0
:1020E000B689942D930790063289AA842E8413868C
:1020F0003504638DF60263E2D70693078005638596
:10210000F61863EDD700638D062093073004638EC5
:10211000F60A930A24042301D404C9A093073006C5
:102120006385F60A93074006E395F6FE1C400843D4
:1021300093F6070893054500C5C61C410CC363D838
:1021400007001307D002B307F040A301E404970689
:1021500000009386A65F294765A89307000763815F
:10216000F61663E5D7029307E0066388F61893072F
:10217000F006E390F6FA0C401C4313F805081385AB
:1021800047006307080608C39C4385A893075007C8
:10219000E383F6FE930780076388F6129307300700
:1021A000E399F6F61C43D04181459386470014C35A
:1021B00083AA07005685852601C53305554148C0C9
:1021C0005C401CC8A301040461A81C43930A2404B6
:1021D000938647009C4314C32301F4048547D5B775
:1021E00093F607041C410CC3B9DAC207C18781BF4B
:1021F00093F5050408C3C9D99E231307F006638627
:10220000E60E97060000938666542947A30104044E
:102210004C400CC463C5050008406D9908C099E3A3
:10222000B28A89CDB28AB3F5E702FD1AB6958C2140
:102230002380BA00B3D5E70263FFE70AA147631E14
:10224000F7001C40858B91CB58401C4863C7E700C2
:1022500093070003A38FFAFEFD1A3306564110C8F8
:102260004E87CA867000A2852685A13B7D5A631DD4
:10227000450B7D55B250225492540259F249624A9C
:10228000D24A424B45618280A382D5049706000062
:102290009386C64B0C40084313F805081C411105F2
:1022A000630D080208C313F7150001C793E5050283
:1022B0000CC04147A1FF0C4093F5F5FD0CC0B9B728
:1022C0009C4193E707029CC193078007A302F40493
:1022D000970600009386C64875BF13F8050408C327
:1022E000E30308FCC207C1837DBF97060000938605
:1022F000E645214721BFAE873DB794411C43CC49F9
:1023000013F80608138547006306080008C39C43BA
:102310008CC339A008C393F606049C43F5DA8EA358
:1023200023280400B28A2DBF14485686CA85268504
:102330008299E30045F51C40898B8DE7B2474844FC
:10234000E35AF5F23E853DB785465686CA85268511
:102350008299E30065F3050A5C443247998FE345AF
:10236000FAFEE9BF014A930A94017D5BF5B741117A
:1023700022C42A842E8523A4018406C6EFE03FF9F7
:10238000FD576317F500938781849C4391C31CC05C
:10239000B240224441018280411122C42E8483959F
:1023A000E50006C67922634905007C48AA977CC8E7
:1023B000B2402244410182805E247D777D17F98FEF
:1023C0005EA4FDB7DE25011122CC26CA4AC84EC63E
:1023D00006CE93F70710AA842E843289B68991C756
:1023E0008395E5008946014609225E247D777D17A5
:1023F000F98F5EA48315E4006244F240CE864A86DB
:10240000B24942492685D244056125A8411122C41A
:102410002E848395E50006C6C928FD575A24631A01
:10242000F500FD77FD17F98F5EA4B240224441010B
:1024300082808567D98F5EA468C8C5BF8395E50093
:1024400005A8411122C42A842E85B285368623A48C
:10245000018406C6EFE01FE8FD576317F500938778
:1024600081849C4391C31CC0B240224441018280BC
:10247000411122C42A842E8523A4018406C6C520C6
:10248000FD576317F500938781849C4391C31CC05B
:10249000B240224441018280411122C42A842E8507
:1024A000B28523A4018406C6C920FD576317F50031
:1024B000938781849C4391C31CC0B2402244410154
:1024C0008280411122C42A842E8523A4018406C659
:1024D0005D20FD576317F500938781849C4391C36A
:1024E0001CC0B240224441018280411122C42A848E
:1024F0002E85B285368623A4018406C65920FD5751
:102500006317F500938781849C4391C31CC0B2403C
:1025100022444101828093F5F50F2A966314C50089
:10252000014582801C21E38EB7FE0505C5BF828070
:102530008280411122C42A842E85B285368623A446
:10254000018406C6A920FD576317F500938781848F
:102550009C4391C31CC0B240224441018280930736
:10256000800523A4F1847D5582809307800523A4F0
:10257000F1847D5582809307800523A4F184014571
:1025800082809307800523A4F1847D558280930780
:10259000800523A4F1847D5582800000E803E803D0
:1025A000E803E80300000000000000000400000051
:1025B0005B55415643414E5D204572726F723A2021
:1025C000256C750D0A0000005B55415643414E5D78
:1025D000204E6F646520696E666F20726571756547
:1025E00073742072656365697665640D0000000090
:1025F0005B55415643414E5D205265737461727460
:1026000020636F6D6D616E642072656365697665C8
:10261000640D00005B55415643414E5D2052656399
:102620006569766564206D6573736167652074798B
:1026300070653A2025640D0A000000005379737418
:10264000656D436C6B3A25640D0A00004368697040
:1026500049443A253038780D0A0000005541564368
:10266000414E20436F6E74726F6C6C657220496EC0
:10267000697469616C697A696E672E2E2E0D00008F
:1026800055415643414E204E6F64652049443A20DF
:1026900025640D0A00000000436F6E74726F6C6C4D
:1026A000657220526561647921204C4544206F6E2B
:1026B000205041342077696C6C20626C696E6B200D
:1026C0006174202564206D7320696E746572766173
:1026D0006C0D0A0000000000000000000000000077
:1026E00000000000000000000000000000000000EA
:1026F00000000000000000000000000000000000DA
:1027000000000000000000000000000000000000C9
:1027100000000000000000000000000000000000B9
:1027200000000000000000000000000000000000A9
:1027300000000000232D302B20000000686C4C00AE
:1027400065666745464700003031323334353637E9
:1027500038394142434445460000000030313233AD
:1027600034353637383961626364656600000000CD
:102770002A0000000000000043483332563230780F
:102780002055415643414E204E6F646500000000C5
:102790000000000000000000000000000000000039
:1027A0000000000000000000000001000000010027
:1027B0000000000000000000F0DEBC9A78563412E1
:1027C00000000000000000000102030406070809E1
:1027D00000000000010203040102030406070809C7
:1027E00000000000F426000014270000D42600009A
:1027F00000000000000000000000000000000000D9
:1028000000000000000000000000000000000000C8
:1028100000000000000000000000000000000000B8
:1028200000000000000000000000000000000000A8
:102830000000000000000000000000000000000098
:102840007F00000000D8B805020406081C01002023
:08285000700000207000002060
:00000001FF
